:020000040800F2
:10000000A8130020AD020008E5680008C5620008DA
:10001000E16800087D0B00083B8B00080000000031
:10002000000000000000000000000000916E0008C9
:100030000910000800000000E7680008936E00083F
:10004000C7020008C7020008C7020008C70200086C
:10005000C7020008C7020008C7020008C70200085C
:10006000C7020008C7020008C7020008810B000889
:10007000C7020008C7020008C7020008C70200083C
:10008000C7020008C7020008C7020008C70200082C
:10009000C7020008C7020008C7020008C70200081C
:1000A000C7020008C7020008C7020008C70200080C
:1000B00045700008C7020008C7020008C702000810
:1000C000C7020008C7020008C7020008C7020008EC
:1000D000C7020008C7020008C7020008C7020008DC
:1000E000C7020008C702000800000000C70200089D
:1000F00055700008C7020008C7020008C7020008C0
:10010000C7020008C7020008C7020008C7020008AB
:10011000C7020008C7020008C7020008C70200089B
:10012000C7020008C7020008C7020008C70200088B
:10013000C7020008C7020008C7020008C70200087B
:1001400000000000000000000000000000000000AF
:10015000C7020008C7020008C7020008C70200085B
:10016000C7020008C7020008C7020008C70200084B
:10017000C7020008C7020008C7020008000000000C
:10018000C7020008C7020008C7020008C70200082B
:10019000C7020008C7020008C7020008C70200081B
:1001A000C7020008C7020008C7020008C70200080B
:1001B000C7020008C7020008C7020008C7020008FB
:1001C000C7020008C7020008C7020008C7020008EB
:1001D000C7020008C7020008C7020008C7020008DB
:1001E000C7020008C7020008C7020008C7020008CB
:1001F000C7020008C7020008C7020008C7020008BB
:10020000C7020008C7020008C7020008C7020008AA
:10021000C7020008C7020008C7020008C70200089A
:10022000C7020008C7020008C7020008000000005B
:10023000C7020008C702000800000000C70200084B
:10024000C7020008C7020008C7020008C70200086A
:10025000C7020008C7020008C7020008C70200085A
:10026000C7020008C7020008C7020008C70200084A
:10027000C7020008C7020008C7020008000000000B
:10028000C7020008C7020008C702000800000000FB
:1002900000000000C7020008DFF80CD000F078FA78
:1002A00000480047C99B0008A81300200648804763
:1002B00006480047FEE7FEE7FEE7FEE7FEE7FEE74B
:1002C000FEE7FEE7FEE7FEE79D6F000899020008E3
:1002D0002DE9F05F0546002092469B46884606467B
:1002E000814640241BE0284641464746224600F00E
:1002F00086F853465A46C01A914110D31146184603
:10030000224600F06DF82D1A67EB01084F46224691
:100310000120002100F064F817EB00094E41201E77
:10032000A4F10104DFDC484631462A464346BDE8D5
:10033000F09F40EA01039B0703D009E008C9121FA0
:1003400008C0042AFAD203E011F8013B00F8013B8F
:10035000521EF9D27047D2B201E000F8012B491EBB
:10036000FBD270470022F6E710B513460A46044652
:100370001946FFF7F0FF204610BD421C10F8011B84
:100380000029FBD1801A704730B50446002003468F
:1003900000E05B1C934203D2E05CCD5C401BF8D0D4
:1003A00030BD034611F8012B00F8012B002AF9D1CA
:1003B0001846704730B50B46014600202022012424
:1003C00009E021FA02F59D4205D303FA02F5491B23
:1003D00004FA02F52844151EA2F10102F1DC30BD39
:1003E000202A04DB203A00FA02F1002070479140F5
:1003F000C2F1200320FA03F3194390407047202AEA
:1004000004DB203A21FA02F00021704721FA02F3BE
:10041000D040C2F1200291400843194670472DE9AF
:10042000FE4F804681EA0300C00F0C46009021F089
:10043000004123F00045B8EB0200A94105D2404637
:10044000214690461C460B46024623F000401043CE
:1004500047D0270DC7F30A00C3F30A510290401A90
:10046000019040286BDAC3F3130040F4801B00981E
:10047000924620B10023D2EB030A63EB0B0B0198E9
:100480005946C0F140025046FFF7AAFF06460D4606
:1004900050465946019A00F08DF910EB0800614171
:1004A000002487EA115284EAE7731A4340D0009A85
:1004B00062B3019A012A4FEA075215DC001B61EB77
:1004C00002014FF0004202EA0752CDE90042001C4F
:1004D00041F5801132462B4600F08DF903B0BDE89E
:1004E000F08F40462146F9E7001B61EB0201001C3A
:1004F00041F5801300185B412018A2F5001747EB67
:10050000030140EAD570B6196D4111E06D084FEA5C
:10051000360645EAC0754FEA0752001B61EB02013F
:10052000001C41F5801149084FEA30000019514183
:1005300032462B4603B0BDE8F04F00F04DB90098AD
:10054000012240000023D0EB020263EBE07300982D
:1005500021464FEAE074B8EB000061EB0401E9E7E3
:1005600083F000435BE781F0004158E72DE9FE4F3F
:1005700081EA030404F0004421F0004100944FF0AC
:10058000000B23F0004350EA01045ED052EA03045A
:100590005BD0C3F30A54C1F30A552C44A4F2F334DC
:1005A0000194A0FB0254C1F3130141F48011C3F381
:1005B000130343F4801301FB024400FB034E840A3F
:1005C000970A44EA815447EA8357A4FB07680295D7
:1005D0008D0A05FB07854FEA932C04FB0C54270575
:1005E000029D4FEA065847EA1637B5EB08056EEB51
:1005F000070C870E920E47EA811742EA8312A7FB87
:100600000201B6EB0B0164EB00042B0D43EA0C3343
:100610005E1844EB1C50DA465146E7FB0201C5F375
:1006200013044FEA0B3343EA14534FEA0432019C9C
:1006300043EA0603A4F10C040294009CCDE900B443
:1006400000F0D9F803B0BDE8F08F00200146F9E7CB
:100650002DE9F04D81EA030404F0004B21F0004540
:1006600014464FF0000A23F0004150EA050220D062
:1006700054EA01021DD0C5F30A570246C5F313031D
:10068000C1F31300C1F30A5640F4801543F48013FC
:10069000A7EB0608101BD64608F2FD3873EB0500E1
:1006A00002D308F1010801E092185B41B8F1000F94
:1006B00003DA00200146BDE8F08D00204FF48011E0
:1006C000064684460EE0171B73EB050705D3121B85
:1006D00063EB050306434CEA010C49084FEA30007E
:1006E00092185B4150EA0107EDD152EA030012D0A3
:1006F00082EA040083EA0501084305D0101BAB41E0
:1007000006D20122002306E000224FF0004302E05F
:100710006FF0010253101AEB06004CEB085110EB7E
:100720000A0041EB0B01BDE8F04D00F055B8C1F3F4
:100730000A52C1F3130140F2FF3341F480119A428F
:1007400002DA00200146704740F233439A42A2F297
:10075000334202DC5242FFF752BEFFF741BE0000B7
:1007600030B5041E71F1000404DB4FF00044404238
:1007700064EB0101141E73F1000405DB1C464FF00D
:100780000043524263EB0403994208BF904230BDDC
:10079000064C074D06E0E06840F0010394E80700CE
:1007A00098471034AC42F6D3FFF77AFD14B5000831
:1007B00034B50008202A06DBCB17203A41FA02F0B4
:1007C00043EAE07306E041FA02F3D040C2F12002AE
:1007D000914008431946704710B5141E73F1000488
:1007E00008DA401C41F1000192185B411A4301D123
:1007F00020F0010010BD2DE9F04D92469B4611B14D
:10080000B1FA81F202E0B0FA80F220329046FFF7AE
:10081000E7FD04460F4640EA0A0041EA0B01534651
:100820005A46084313D0114653EA010019D0C8F1C3
:1008300040025046FFF7E3FD05460E465046594636
:100840004246FFF7CDFD084305D0012004E02046D5
:100850003946BDE8F08D0020054346EAE0762C439A
:1008600037430A986305E40AA0EB08000022FD0A5A
:1008700044EA47540A3002D500200146E9E7010561
:1008800010196941DDE9084500196941BDE8F04DDD
:10089000A2E7000070B5044651492068884203D0A1
:1008A00050492068884208D14F48006800F4403021
:1008B00008B1012009E0002007E04C48006800F47E
:1008C000403008B1012000E00020B8B104F03EF94A
:1008D00005466068B0F5803F06D0B0F5003F04D013
:1008E000B0F5403F08D105E000BF6068000CB5FBE3
:1008F000F0F502E0AD0800E000BF2AE04FF4002070
:1009000003F06CF805466068C0F31101F9B9801472
:100910000C281CD2DFE800F01B060708090A0B119F
:100920001315171900BF00BF00BF00BF00BF6068EC
:10093000800C4000B5FBF0F50AE02D0908E06D09D8
:1009400006E0AD0904E0ED0902E02D0A00E000BF79
:1009500000BF02F045FB41F20301884210D8244851
:10096000854206D92068806840F4807021688860DC
:1009700035E02068806820F48070216888602EE06F
:100980006D081C48854206D82068806820F44070B5
:100990002168886023E0174885420BD940008542D2
:1009A00008D82068806820F4407040F48070216886
:1009B000886014E0104885420BD94000854208D871
:1009C0002068806820F4407040F4007021688860DE
:1009D00005E02068806840F440702168886070BD40
:1009E0000020024000210240082302400863025810
:1009F000002D3101105E5F0020BCBE0070B50546C1
:100A0000AC6B606D00F0500098BB606D40F40070FE
:100A100060652068006800F00800A8B1206805F053
:100A2000CAFC10B32068C06800F40050E8B9606DDB
:100A300020F480706065606D00F48050A8B9606D2E
:100A400040F00100606510E02068C06800F003001D
:100A500058B9606D20F480706065606D00F480505E
:100A600018B9606D40F001006065204600F066FE38
:100A70000CE0FFE7606D00F0100018B1204600F0B8
:100A800075FE03E0E06CC16C2846884770BD70B508
:100A90000546AC6B606D40F040006065A06D40F0B5
:100AA0000400A065204600F061FE70BD70B50446EC
:100AB000A56B284600F050FE70BD000070B50446DE
:100AC000206805F05FFC00284CD12068806826492A
:100AD000084048B1606D40F010006065A06D40F0C6
:100AE0000100A065012070BD206805F039FC02F00E
:100AF0007DFA05461D4A2168914203D01C4A2168AF
:100B0000914201D11B4900E01B49084605F030FC29
:100B1000064617492068884201D1144800E0206841
:100B20002168884200D0E6B915E0206805F02AFC6B
:100B300010B9206805F014FC02F058FA401B022896
:100B400009D9606D40F010006065A06D40F00100B3
:100B5000A0650120C7E72068006800F001000028B8
:100B6000E3D000BF0020BEE73F000080002002402D
:100B700000210240002302400063025800BFFEE74C
:100B800010B5024801F05EF810BD00008409002095
:100B90000146374A0868904249D0354A18320868F9
:100BA000904244D0324A3032086890423FD0304AB6
:100BB0004832086890423AD02D4A60320868904224
:100BC00035D02B4A78320868904230D0284A90328B
:100BD000086890422BD0264AA8320868904226D056
:100BE000244A0868904222D0224A1832086890426B
:100BF0001DD0204A30320868904218D01D4A483231
:100C00000868904213D01B4A6032086890420ED0A8
:100C1000184A78320868904209D0164A903208681B
:100C2000904204D0134AA8320868904201D10120B2
:100C300000E00020B0B10A78103A1823B2FBF3F0BC
:100C400000F007020C4B9A5CCA65032805D90A68B4
:100C50006FF30902121D8A6503E00A686FF3090247
:100C60008A6503E0086820F0FF008865886D70479A
:100C70001000024010040240F4B4000810B50268ED
:100C80002B4C0368A34222D0294C14340368A3429E
:100C90001DD0274C28340368A34218D0244C3C3480
:100CA0000368A34213D0224C50340368A3420ED0F1
:100CB0001F4C64340368A34209D01D4C7834036888
:100CC000A34204D01A4C8C340368A34201D10123FF
:100CD00000E000238BB10378083B1424B3FBF4F14C
:100CE000144B03EB81030366124B8033436601F020
:100CF0001F040123A340836618E00378103B1824E7
:100D0000B3FBF4F10C4B9A4204D80B4BA83B9A422C
:100D100000D30831094B03EB81030366074B803393
:100D2000436601F01F040123A340836610BD000049
:100D30000854025800580258B80402400008024003
:100D40000179A9B3082940D8204B02689A4222D0E1
:100D50001E4B143302689A421DD01C4B2833026884
:100D60009A4218D0194B3C3302689A4213D0174B61
:100D7000503302689A420ED0144B643302689A4290
:100D800009D0124B783302689A4204D00F4B8C334F
:100D900002689A4201D1012200E000224AB14A1EB3
:100DA0000B4B03EB8202C266094A4032026708E03D
:100DB0000BE04A1E074B03EB8202C266054A403233
:100DC00002674A1E01239340436770470854025844
:100DD0000059025800090240014600208A69D2B930
:100DE0008A6A32B1012A0DD0022A03D0032A10D117
:100DF0000EE000BFCA6A02F08072B2F1807F00D1BB
:100E0000012007E0CA6AB2F1C07F00D1012001E0F1
:100E100000E000BF36E08A69B2F5005F1BD18A6A44
:100E200032B1012A07D0022A03D0032A11D10AE0E5
:100E300000BF01200EE0CA6A02F08072B2F1807F2A
:100E400000D1012006E0CA6AB2F1C07F00D10120C2
:100E500000E000BF16E08A6A32B1012A05D0022AFA
:100E600004D0032A0CD103E000BF00BF012008E03A
:100E7000CA6A02F08072B2F1807F00D1012000E0E6
:100E800000BF00BF70470000F0B5846D856DD0E9EC
:100E900019767E60C66E16B1D0E91C767E60574F1B
:100EA0000668BE4249D0554F18370668BE4244D046
:100EB000524F30370668BE423FD0504F4837066821
:100EC000BE423AD04D4F60370668BE4235D04B4FD8
:100ED00078370668BE4230D0484F90370668BE4229
:100EE0002BD0464FA8370668BE4226D0444F06682E
:100EF000BE4222D0424F18370668BE421DD0404F36
:100F000030370668BE4218D03D4F48370668BE42AB
:100F100013D03B4F60370668BE420ED0384F78374B
:100F20000668BE4209D0364F90370668BE4204D0EC
:100F3000334FA8370668BE4201D1012600E00026E3
:100F4000DEB190F85C6006F01F073F26BE40A66049
:100F50000668366826F4802607683E600668736077
:100F60008668402E04D10668B2600668F16044E0ED
:100F70000668B1600668F2603FE0224F0668BE4234
:100F800022D0204F14370668BE421DD01D4F28378F
:100F90000668BE4218D01B4F3C370668BE4213D0CD
:100FA000184F50370668BE420ED0164F6437066899
:100FB000BE4209D0134F78370668BE4204D0114FA5
:100FC0008C370668BE4201D1012600E00026A6B19A
:100FD00090F85C6006F01F070126BE406E60066850
:100FE00073608668402E04D10668B2600668F160BE
:100FF00003E00668B1600668F260F0BD10000240D0
:1010000010040240085402587047704710B501F0B0
:10101000F3FF1949086001F0F5FF1749486001F036
:10102000F7FF15498860084600684008496800EBEA
:1010300091001149896800EBD10010490860084609
:101040000068000E0E4908700C480068000C4870DB
:101050000A480088000A887008480078C870074865
:10106000008808490880084602880448016806A0EC
:1010700007F066FD10BD00001409002040000020AC
:10108000180000203E000020C9E8B1B86964A3BA86
:1010900025642CB6CBBFDA3A2025640D0A00000087
:1010A0002DE9F04399B004460E464FF00008306831
:1010B00000B100BF00BF94F85000012803D1022006
:1010C00019B0BDE8F083012084F8500000BF474903
:1010D0002068884202D14648009001E0002000903C
:1010E000009850B9606D40F02000606500BF00209E
:1010F00084F8500000BF0120E2E7009805F056F99F
:101100000746206805F052F9002861D1002F5FD111
:1011100036492068884203D035492068884201D189
:10112000344800E034480546306858B3A86820F4D5
:10113000404071680843A8602C492068884203D069
:101140002B492068884201D12A4800E02A482949D1
:10115000884209D1254805F01AF98146244805F04E
:1011600016F949EA000002E0244805F010F970BBC6
:10117000B16830680843A96840F61F72914308437C
:10118000A8602BE0A86820F44040A86017492068B8
:10119000884203D016492068884201D1154800E0F2
:1011A00015481449884209D1104805F0F0F88146E5
:1011B0000F4805F0ECF849EA000002E00F4805F09E
:1011C000E6F820B9A86840F61F718843A86005E0DA
:1011D000606D40F0200060654FF0010800BF002006
:1011E00084F8500000BF40466AE70000002002403B
:1011F00000210240002302400063025800600258B0
:101200002DE9F84F04460D464FF0000A00200090EB
:1012100094F83800012800D100E000BFF749E868E1
:10122000884200D00EE0F6492068884200D100BF15
:10123000F4492068884200D100BFF3492068884201
:1012400000D100BF00BF94F85000012802D1022055
:10125000BDE8F88F012084F8500000BF206805F039
:10126000A0F800287ED12068C1692868C0F3130067
:1012700018B92868C0F3846004E0286890FAA0F0E8
:10128000B0FA80F000F01F02012090400143206876
:10129000C1612168D5E9002001F1300CC0F3012BB8
:1012A0000CEB8B03D3F800C000F01F0E4FF01F0BA8
:1012B0000BFA0EFB2CEA0B0C00F01F0BC2F3846E32
:1012C0000EFA0BFE4CEA0E0CC3F800C000BF2068FB
:1012D00005F067F88146206805F04FF88046B9F1BF
:1012E000000F6FD1B8F1000FFBD1AA682968206800
:1012F00005F072F8C548006800F07040B0F1805FFA
:1013000007D168692168C968C1F382014900884032
:1013100014E02068C06800F0100038B968692168DE
:10132000C968C1F382014900884007E06869216803
:10133000C96801F0100189084900884007462869FA
:10134000042840D020682A68296900F1600C0CEB61
:101350008103D3F800C00CF0004C02F0F84B4BEACC
:10136000070B00E0C9E14CEA0B0CC3F800C000BF5A
:1013700020686A7E2969012A01D1D20700E0002293
:10138000134600F1600C0CEB8102D2F800C02CF087
:10139000004C4CEA030CC2F800C000BF20682B7E52
:1013A0002969012B01D1DB0200E000231A46036901
:1013B00023F4F04301F01F0C02FA0CFC43EA0C0387
:1013C000036100BF37E02068006E00F0F840297824
:1013D000B0EB816F05D12068006E20F000402168DD
:1013E00008662068406E00F0F8402978B0EB816F05
:1013F00005D12068406E20F00040216848662068D2
:10140000806E00F0F8402978B0EB816F05D120683C
:10141000806E20F00040216888662068C06E00F071
:10142000F8402978B0EB816F05D12068C06E20F0BC
:1014300000402168C866206804F0A4FF002870D12D
:101440002068EA682968D0F8C0C0C1F313032CEA09
:10145000030C02F0180B6E4B23FA0BF30B404CEA13
:10146000030CC0F8C0C000BF6449E86888427DD161
:101470002B68C3F313031BB92B68C3F3846304E025
:101480002B6893FAA3F3B3FA83F35B1C03F01F03F7
:10149000092B3ED82B68C3F313031BB92B68C3F386
:1014A000846304E02B6893FAA3F3B3FA83F35B1C21
:1014B00003F01F034FF0010C0CFA03FC2B68C3F37D
:1014C00013031BB92B68C3F3846304E02B6893FAFE
:1014D000A3F3B3FA83F35B1C03F01F034CEA836CA2
:1014E0002B68C3F313031BB92B68C3F3846304E0B5
:1014F0002B6893FAA3F3B3FA83F35B1C03F01F0387
:1015000003EB43034FF0000B4BEA03534CEA030396
:1015100041E02B68C3F3130323B92B68C3F384633F
:1015200005E0A8E02B6893FAA3F3B3FA83F35B1CFE
:1015300003F01F034FF0010C0CFA03FC2B68C3F3FC
:1015400013031BB92B68C3F3846304E02B6893FA7D
:10155000A3F3B3FA83F35B1C03F01F034CEA836C21
:101560002B68C3F313032BB92B6800E018E0C3F317
:10157000846304E02B6893FAA3F3B3FA83F35B1C50
:1015800003F01F030A3B03EB43034FF0007B4BEADE
:1015900003534CEA03031946AA68206804F01CFFB1
:1015A000286800F00040002865D0154A2168914263
:1015B00003D0144A2168914201D1164900E016492E
:1015C0000846816801F0E07600BF0D492068884236
:1015D00003D00C492068884201D10E4800E00E4833
:1015E0000C4988421AD1064804F0CCFE83460548CF
:1015F00004F0C8FE4BEA000013E000000000FF47C3
:101600000020024000210240006002580010005CEF
:10161000FFFF0F0000230240006302583D4804F022
:10162000B1FEE8BB3C492868884225D106F4000099
:1016300010BB38492068884265D1384B22689A42ED
:1016400003D0374B22689A4201D1364A00E0364A2D
:10165000104646F4000104F0D3FE344800683449D3
:10166000B0FBF1F04000009002E00098401E0090B6
:1016700000980028F9D146E02E492868884219D1FF
:1016800006F08070B0B92349206888423BD1234BD3
:1016900022689A4203D0224B22689A4203D100E08A
:1016A00024E0204A00E0204A104646F0807104F011
:1016B000A7FE28E020492868884224D106F480004B
:1016C00008BB1449206888421DD1144B22689A42F5
:1016D00003D0134B22689A4201D1124A00E0124A09
:1016E000104646F4800104F08BFE0CE0606D40F083
:1016F000200060654FF0010A05E0606D40F02000B9
:1017000060654FF0010A00BF002084F8500000BF60
:1017100050469DE500600258000084CB0020024046
:10172000002102400023024000630258B80000205C
:10173000400D0300000052C70000B8CF10B50446AA
:101740000621034805F0D6FA01200249086010BDC1
:101750000C0000245400002010B504460621024865
:1017600005F0C8FA10BD000000000024704700001A
:101770002DE9F84F04464FF000090020009014B9FD
:101780000120BDE8F88FE06818B1207F012800D162
:1017900000BF606D30B9204600F030F90020A06530
:1017A00084F8500020688168C1F3407131B120682D
:1017B0008168874A1140816000BF00BF206804F043
:1017C000EBFDA0B920688168824A114041F0805148
:1017D000816000BF804800688049B0FBF1F0009054
:1017E00002E00098401E009000980028F9D120687F
:1017F00004F0D2FD48B9606D40F010006065A06D46
:1018000040F00100A0654FF00109206804F0C9FD17
:101810000646606D00F0100000287DD1002EFCD13E
:10182000606D20F4807040F002006065206804F074
:10183000A9FD78BB6A492068884203D069492068BD
:10184000884201D1684800E068486749884209D168
:10185000634804F097FD8246624804F093FD4AEA2B
:10186000000002E0624804F08DFD98B95C4B2268EC
:101870009A4203D05B4B22689A4201D15A4A00E057
:101880005A4A10466168826822F47C120A438260D8
:1018900000BF00BF01F0A4FB41F2030188420ED952
:1018A000A06810280BD1607D216B41EA4030A1680F
:1018B000084340F00C01207F41EA004508E0607DCC
:1018C000216B41EA4030A1680843217F40EA01458D
:1018D000207F012803D1208C401E45EA4045606AE4
:1018E00028B1A08C00F47870A16A084305432068F1
:1018F000C0684049084028432168C860206804F057
:1019000050FD8046206804F038FD0746B8F1000F0E
:101910003BD1D7BB207D00E051E0E16A41EA803550
:101920002068C06844F20301884328432168C860E6
:1019300094F83800012817D1606A08B1A06A00B98C
:1019400000BFA08F401E012141EA0041206C0843E6
:10195000616C0843A16C084321680969264A11405B
:1019600008432168086105E02068006920F0010053
:10197000216808612068006920F07040616B0843AD
:10198000216808612046FEF785FFE068012809D13B
:101990002068006B20F00F00A169491E08432168F0
:1019A000086305E02068006B20F00F0021680863E1
:1019B000606D20F0020040F00100606505E0606DA0
:1019C00040F0100060654FF001094846D9E600007C
:1019D000C0FFFF5FC0FFFF7FB8000020400D030085
:1019E0000020024000210240002302400063025810
:1019F0000060025803C0F0FF1EF800FC10B586B06E
:101A00000446142101A8FEF7ADFC3E492068884237
:101A100076D100BF3C48006840F020003A49086099
:101A20000846006800F02000009000BF00BF00BF23
:101A300035480830006840F0040033490831086038
:101A40000846006800F00400009000BF00BF00BF1F
:101A50000846006840F0020008600846006800F090
:101A60000200009000BF00BF00BF0846006840F0C1
:101A7000200008600846006800F02000009000BFC9
:101A800000BF30200190032002900020039001A9A4
:101A90001E4801F09BF90320019002900020039062
:101AA00001A91B4801F092F94FF4C05001900320A6
:101AB00002900020039001A9164801F087F916480A
:101AC0001649086009204860002114488160C160FF
:101AD0004FF4806101618900416189008161891150
:101AE000C1614FF4403101620021416200F026FEE5
:101AF00008B1FFF78AFA00BF0848E064846300BFBA
:101B000006B010BD00200240D84402580008025818
:101B100000040258001402581000024084090020FA
:101B20002DE9F04104460F4690463F4A2168914214
:101B300003D03E4A2168914201D13D4900E03D4930
:101B4000084604F015FC0646206804F02AFC00282C
:101B500066D100BF94F85000012802D10220BDE8F0
:101B6000F081012084F8500000BF1EB1052E01D085
:101B7000092E4FD12046FEF7A1FF0546002D44D186
:101B8000606D40F60161884340F4807060652749CC
:101B90002068884201D1244800E0206821688842FA
:101BA00000D01EB9606D20F480106065606D00F497
:101BB000805020B1A06D20F00600A06501E000205B
:101BC000A0651D48E16CC8631C48E16C08641C48B2
:101BD000E16CC8641C202168086000BF002084F804
:101BE000500000BF2068406840F010002168486045
:101BF000226802F1400143463A46E06C00F05CFF87
:101C00000546206804F0E0FB0BE000BF002084F8EC
:101C1000500006E0012500BF002084F8500000E0DD
:101C2000022528469BE700000020024000210240D8
:101C30000023024000630258FD090008AD0A0008B5
:101C40008F0A00082DE9F84F044600200090FE4856
:101C500000684FF41651B0FBF1FAA66DD4F8588025
:101C60003768D8F80090F9492068884249D0F74988
:101C700018312068884244D0F449303120688842C5
:101C80003FD0F2494831206888423AD0EF4960316C
:101C90002068884235D0ED4978312068884230D0BC
:101CA000EA499031206888422BD0E849A831206861
:101CB000884226D0E6492068884222D0E44918317B
:101CC000206888421DD0E24930312068884218D00F
:101CD000DF4948312068884213D0DD4960312068EF
:101CE00088420ED0DA4978312068884209D0D84934
:101CF00090312068884204D0D549A83120688842B4
:101D000001D1012000E0002000287DD094F85C0083
:101D100000F01F01082088403840002868D0CB49D7
:101D20002068884249D0C94918312068884244D087
:101D3000C6493031206888423FD0C44948312068C4
:101D400088423AD0C14960312068884235D0BF49C5
:101D500078312068884230D0BC4990312068884270
:101D60002BD0BA49A8312068884226D0B8492068CB
:101D7000884222D0B6491831206888421DD0B44923
:101D800030312068884218D0B149483120688842F3
:101D900013D0AF496031206888420ED0AC49783109
:101DA0002068884209D0AA4990312068884204D02E
:101DB000A749A8312068884204D12068006800F053
:101DC000040003E02068006800F0080080B120688B
:101DD000006820F004002168086094F85C0000F0BE
:101DE0001F0108208840B060606D40F00100606510
:101DF00094F85C0000F01F01012088403840E8B3EF
:101E000092492068884200E0B8E24BD08F491831EF
:101E10002068884246D08D4930312068884241D0C0
:101E20008A494831206888423CD08849603120681E
:101E3000884237D0854978312068884232D083493A
:101E40009031206888422DD08049A831206888428E
:101E500028D07F492068884224D07D4918312068E5
:101E600088421FD07A493031206888421AD0784998
:101E700048312068884215D0754900E026E060317D
:101E8000206888420ED0724978312068884209D093
:101E90006F4990312068884204D06D49A83120688C
:101EA000884204D12068406900F0800002E0206888
:101EB0000068002050B194F85C0000F01F01012080
:101EC0008840B060606D40F00200606594F85C008E
:101ED00000F01F01042088403840E8B35B492068C7
:101EE00088424BD0594918312068884246D057491A
:101EF00030312068884241D05449483120688842B6
:101F00003CD0524960312068884237D04F497831FF
:101F10002068884232D04D499031206888422DD0C7
:101F20004A49A8312068884228D049492068884217
:101F300024D047491831206888421FD044493031A5
:101F4000206888421AD0424948312068884215D01A
:101F50003F496031206800E024E088420ED03C49CF
:101F600078312068884209D0394990312068884208
:101F700004D03749A8312068884204D1206800681D
:101F800000F0020002E020680068002050B194F8E0
:101F90005C0000F01F0104208840B060606D40F0DC
:101FA0000400606594F85C0000F01F011020884078
:101FB0003840E8B325492068884251D02349183178
:101FC000206888424CD0214930312068884247D06F
:101FD0001E4948312068884242D01C49603120683F
:101FE00088423DD0194978312068884238D0174955
:101FF00090312068884233D01449A8312068884243
:102000002ED01349206888422AD0114918312068FF
:10201000884225D00E4930312068884220D00C49B2
:102020004831206888421BD009496031206800E0AF
:102030004DE0884214D006497831206888420FD09C
:1020400003499031206805E0B800002010000240EC
:1020500010040240884203D0FE492068884204D11F
:102060002068006800F0080003E02068006800F0C5
:10207000040060B394F85C0000F01F011020884059
:10208000B0602068006800F4802080B1206800689B
:1020900000F4002028B9206CC8B12046216C884784
:1020A00015E0A06C98B12046A16C88470FE020682D
:1020B000006800F4807028B92068006820F00800EB
:1020C00021680860206C10B12046216C884794F884
:1020D0005C0000F01F0120208840384000287DD09F
:1020E000DD492068884249D0DB49183120688842A0
:1020F00044D0D9493031206888423FD0D649483150
:10210000206888423AD0D44960312068884235D06E
:10211000D14978312068884230D0CF499031206849
:1021200088422BD0CC49A8312068884226D0C949A2
:10213000A8392068884221D0C64990392068884251
:102140001CD0C44978392068884217D0C149603909
:102150002068884212D0BF494839206888420DD093
:10216000BC4930392068884208D0BA4918392068FB
:10217000884203D0B7492068884204D120680068AB
:1021800000F0100003E02068006800F0020028B3AF
:1021900094F85C0000F01F0120208840B06094F8A3
:1021A000350004282DD12068006820F01600216831
:1021B00008602068406920F0800021684861206C38
:1021C00008B9A06C28B12068006820F008002168D8
:1021D000086094F85C0000F01F0100E03FE03F2041
:1021E0008840B06000BF002084F8340000BF0120A8
:1021F00084F83500206D10B12046216D8847BDE878
:10220000F88F2068006800F4802080B120680068A2
:1022100000F4002028B9606C08B32046616C884740
:102220001DE0E06BD8B12046E16B884717E02068DD
:10223000006800F4807068B92068006820F0100021
:102240002168086000BF002084F8340000BF01202E
:1022500084F83500E06B10B12046E16B8847606D73
:1022600000287DD0606D00F00100E8B3042084F800
:1022700035007949206888424BD077491831206869
:10228000884246D0744930312068884241D0724932
:102290004831206888423CD06F49603120688842CC
:1022A00037D06D4978312068884232D06A49903100
:1022B000206888422DD06849A8312068884228D0FB
:1022C0006449A8392068884223D06249903920683F
:1022D00088421ED05F4978392068884219D05D490C
:1022E00060392068884200E041E012D059494839FD
:1022F000206888420DD0574930392068884208D07C
:10230000544918392068884203D0524920688842CD
:1023100006D12068006820F001002168086005E00F
:102320002068006820F001002168086000BF009864
:10233000401C0090504500D905E02068006800F07E
:1023400001000028F3D100BF00BF002084F8340052
:1023500000BF2068006800F0010028B1032000E001
:102360000BE084F8350002E0012084F83500E06CD1
:10237000002802D02046E16C8847D9E1374920681F
:10238000884222D035491431206888421DD0334913
:1023900028312068884218D030493C312068884272
:1023A00013D02E495031206888420ED02B49643119
:1023B0002068884209D0294978312068884204D0B1
:1023C00026498C312068884201D1012000E000209C
:1023D0000028D2D02068056894F85C0000F01F0146
:1023E0000420884000EA0900D0B305F00400B8B327
:1023F00094F85C0000F01F0104208840C8F8040035
:1024000005F4004080B105F4803030B9A06C00289C
:10241000B3D02046A16C88478AE1206C0028ACD05C
:102420002046216C884783E105F02000F0BB0A4973
:102430002068884252D008491831206888424DD01F
:10244000054930312068884248D003494831206826
:10245000884206E0B80402401000024008540258C6
:102460004FE03BD0B3492068884237D0B14918319A
:102470002068884232D0AF493031206888422DD060
:10248000AC4948312068884228D0AB49206888424E
:1024900024D0A9491831206888421FD0A64930317C
:1024A000206888421AD0A449483100E023E020681F
:1024B000884213D0A0496031206888420ED09E49DE
:1024C00078312068884209D09B4990312068884241
:1024D00004D09949A8312068884206D12068006854
:1024E00020F008002168086005E02068006820F0FE
:1024F000040021680860206C10B32046216C8847D6
:1025000016E194F85C0000F01F010220884000EA08
:102510000900E8B305F00200D0B394F85C0000F0C5
:102520001F0102208840C8F8040005F4004070B183
:1025300005F4803028B9606C10B12046616C884782
:10254000F6E0E06BF0B32046E16B8847F0E005F081
:102550002000C0BB77496039206888424DD075495A
:1025600048392068884248D072493039206888420A
:1025700043D070491839206888423ED06D492068A0
:1025800088423AD06B4918312068884235D000E043
:102590004EE068493031206888422ED06549483184
:1025A0002068884229D064492068884225D0624941
:1025B00018312068884220D05F4930312068884235
:1025C0001BD001E06EE02DE05B4948312068884275
:1025D00013D059496031206888420ED0564978316D
:1025E0002068884209D0544990312068884204D03C
:1025F0005149A8312068884206D12068006820F03F
:1026000014002168086005E02068006820F00A00D6
:102610002168086000BF002084F8340000BF01205A
:1026200084F83500E06BE8B32046E16B88477FE033
:1026300094F85C0000F01F010820884000EA0900BF
:1026400080B305F0080068B33A49603920688842D1
:102650004AD0384948392068884245D03549303910
:102660002068884240D033491839206888423BD0DE
:1026700030492068884237D02E4918312068884276
:1026800032D02C493031206888422DD02949483138
:102690002068884228D028492068884224D02649CA
:1026A000183100E044E0206888421DD022493031D2
:1026B0002068884218D0204948312068884213D0C9
:1026C0001D496031206888420ED01B49783120684E
:1026D000884209D0184990312068884204D01649B0
:1026E000A8312068884206D12068006820F01C00CC
:1026F0002168086005E02068006820F00E0021686D
:10270000086094F85C0000F01F0101208840C8F8C0
:1027100004000120606500BF002084F8340000BF81
:10272000012084F83500E06C10B12046E16C884748
:1027300000BF64E570000240100402402DE9F04142
:10274000044600F053FC804614B90120BDE8F08136
:10275000D4492068884249D0D2491831206888423B
:1027600044D0D0493031206888423FD0CD494831EB
:10277000206888423AD0CB4960312068884235D001
:10278000C84978312068884230D0C64990312068E5
:1027900088422BD0C349A8312068884226D0C2493C
:1027A0002068884222D0C0491831206888421DD054
:1027B000BD4930312068884218D0BB494831206873
:1027C000884213D0B8496031206888420ED0B6499B
:1027D00078312068884209D0B34990312068884216
:1027E00004D0B149A8312068884201D1012000E01D
:1027F0000020002873D0606A00B100BF00BF002035
:1028000084F8340000BF022084F83500A549206810
:10281000884249D0A34918312068884244D0A14950
:102820003031206888423FD09E4948312068884234
:102830003AD09C4960312068884235D09949783136
:102840002068884230D097499031206888422BD048
:102850009449A8312068884226D09349206888424C
:1028600022D091491831206888421DD08E493031DC
:102870002068884218D08C4948312068884213D09B
:1028800089496031206888420ED0874978312068B4
:10289000884209D0844990312068884204D0824916
:1028A000A8312068884206D12068006820F0010025
:1028B0002168086005E02068006820F001002168B8
:1028C00008600DE000F092FBA0EB0800052807D996
:1028D00020206065032084F83500012036E745E0BC
:1028E0002068006800F001000028EBD1206805682E
:1028F0006E480540D4E90201084321690843616933
:102900000843A1690843E1690843216A0843054374
:10291000606A042803D1D4E90B0108430543206809
:1029200005602068456925F00705606A0543606A0F
:1029300004280DD1A06A0543E06A48B12046FEF79D
:102940004BFA28B140206065012084F83500FDE68F
:10295000206845612046FEF71BF9064694F85C00A6
:1029600000F01F013F208840B06073E050492068AC
:10297000884222D04E491431206888421DD04C49EB
:1029800028312068884218D049493C312068884263
:1029900013D047495031206888420ED044496431F1
:1029A0002068884209D0424978312068884204D0A2
:1029B0003F498C312068884201D1012000E000208D
:1029C000F0B300BF002084F8340000BF022084F878
:1029D00035002068056837480540A068402801D1C7
:1029E000102105E0A068802801D1C10100E000218C
:1029F000E06841EAD001206941EAD001606941EA1A
:102A0000D001A06941EAD001E06941EAD001206A21
:102A100041EA101005432068056025492068401AE6
:102A20001421B0FBF1F08000E0652046FEF7B0F81D
:102A3000074694F85C0000F01F010120884000E088
:102A400001E0786006E040206065032084F83500EE
:102A500001207BE62046FEF711F9A068802801D10D
:102A6000002060602079216E0860D4E91910486068
:102A7000606860B16068082809D82046FEF760F9F0
:102A80000020E16E0860D4E91C10486003E00020DB
:102A9000E0662067606700206065012084F83500EB
:102AA000002053E610000240100402403F8010FE58
:102AB000085402580F00FEFF2DE9F04104460D4670
:102AC00016461F464FF0000814B90120BDE8F081FA
:102AD00000BF94F83400012801D10220F6E701205C
:102AE00084F8340000BF94F8350001287ED102201C
:102AF00084F8350000206065A8492068884249D0E4
:102B0000A64918312068884244D0A4493031206851
:102B100088423FD0A1494831206888423AD09F4935
:102B200060312068884235D09C49783120688842DD
:102B300030D09A499031206888422BD09749A831EB
:102B40002068884226D096492068884222D094493D
:102B50001831206888421DD0914930312068884260
:102B600018D08F4948312068884213D08C49603191
:102B7000206888420ED08A4978312068884209D07E
:102B8000874990312068884204D08549A83120685F
:102B9000884206D12068006820F0010021680860A2
:102BA00005E02068006820F00100216808603B46CD
:102BB000324629462046FEF767F978492068884260
:102BC0004BD0764918312068884246D0734930315D
:102BD0002068884241D071494831206888423CD001
:102BE0006E4960312068884237D000E0C9E06B4907
:102BF00078312068884230D0684990312068884216
:102C00002BD06649A8312068884226D064492068C4
:102C1000884222D062491831206888421DD060491C
:102C200030312068884218D05D4948312068884298
:102C300013D05B496031206888420ED05849783102
:102C40002068884209D0564990312068884204D0D3
:102C50005349A8312068884201D1012000E00020BA
:102C600080B12068006820F01E0040F01600216846
:102C70000860206CB0B12068006840F0080021684E
:102C800008600FE02068006820F00E0040F00A00A5
:102C900021680860206C28B12068006840F00400BA
:102CA00021680860206E006800F4803028B1206E32
:102CB000006840F48070216E0860E06E28B1E06E1C
:102CC000006840F48070E16E0860344920688842F2
:102CD00049D0324918312068884244D02F493031D8
:102CE000206888423FD02D494831206888423AD038
:102CF0002A4960312068884235D0284978312068D7
:102D0000884230D025499031206888422BD0234911
:102D1000A8312068884226D021492068884222D0E4
:102D20001F491831206888421DD01D493031206864
:102D3000884218D01A4948312068884213D018496F
:102D40006031206888420ED0154978312068884269
:102D500009D0134990312068884204D01049A83125
:102D60002068884206D12068006840F00100216890
:102D7000086010E02068006840F0010021680860E9
:102D800009E000BF002084F8340000BF4FF4006069
:102D900060654FF00108404698E6000010000240D0
:102DA0001004024070B5044600F020F9064625469E
:102DB000681C10B104480078054400BF00F016F903
:102DC000801BA842FAD370BDB4000020F8B50246BB
:102DD0000023734DDEE001279F400E6806EA0704DA
:102DE000002C71D04E68022E02D04E68122E13D1E4
:102DF000DF0802F1200656F827005E07F70E0F26BF
:102E0000BE40B0435F07FF0E0E69BE403043DF088F
:102E100002F1200646F8270010685F000326BE4036
:102E2000B0430E7906F003065F00BE4030431060E9
:102E30004E68012E08D04E68022E05D04E68112E25
:102E400002D04E68122E13D190685F000326BE4058
:102E5000B0435F00CE68BE403043906050680126AA
:102E60009E40B0430E79C6F300169E40304350603A
:102E7000D0685F000326BE40B0435F008E68BE404E
:102E80003043D0604E6806F08056B6F1805F1BD1AB
:102E900000BF444E366846F00206424F3E603E4652
:102EA000366806F00206009600BF00BF3E4E9F083F
:102EB00056F827009E07370F0F26BE40B0433B4E03
:102EC000B24202D100262EE063E0394EB24201D177
:102ED000012628E0374EB24201D1022623E0364EC9
:102EE000B24201D103261EE0344EB24201D1042683
:102EF00019E0334EB24201D1052614E0314EB24200
:102F000001D106260FE0304EB24201D107260AE079
:102F10002E4EB24201D1082605E02D4EB24201D11B
:102F2000092600E00A269F073F0FBE4030431E4E91
:102F30009F0846F827002868A0434E6806F48036AC
:102F4000B6F5803F00D1204328606868A0434E68F2
:102F500006F40036B6F5003F00D1204368604FF01C
:102F6000B0463068A0434E6806F48016B6F5801F60
:102F700000D120434FF0B04630607068A0434E68E7
:102F800006F40016B6F5001F00D120434FF0B046FE
:102F900070605B1C0E68DE40002E7FF41CAFF8BD35
:102FA00080000058F44402580804005800000258F9
:102FB0000004025800080258000C02580010025881
:102FC0000014025800180258001C02580020025831
:102FD000002402580AB1816101E00B04836170474B
:102FE00001480068000C70470010005C0148006850
:102FF00070470000AC0000200148006870470000E6
:1030000000E8F11F014800687047000004E8F11F64
:10301000014800687047000008E8F11F0348006895
:10302000034909780844014908607047AC00002052
:10303000B400002010B5032000F01CF901F0C2FD1F
:1030400010490968C1F303210F4A515C01F01F01C7
:10305000C8400E4908600B48006800F00F00114698
:10306000085C00F01F0109480068C8400849086072
:10307000002000F00FF808B1012010BD00F09AF810
:103080000020FAE718440258FCB40008B8000020F9
:10309000BC00002070B504461148007808B9012032
:1030A00070BD0F4800784FF47A71B1FBF0F00D4914
:1030B0000968B1FBF0F5284602F034FD08B10120A3
:1030C000EEE7102C07D200222146501E00F094F8A3
:1030D0000548046001E00120E2E70020E0E700008D
:1030E000B4000020B8000020B00000204178154A4C
:1030F00011600178F9B1121D41681160017B090767
:10310000C27A41EA0261827A41EAC241427B41EAE3
:103110008241827B41EA4241C27B41EA0241427ADA
:1031200041EA0221027A41EA420102781143054A4A
:103130000832116005E00021024A121D1160121DC3
:103140001160704798ED00E000BF00BF00BFBFF303
:103150005F8F00BF00BF00BF0548006820F48030CB
:103160000349086000200249703108607047000080
:1031700024ED00E040F001010D4A11600C49703966
:10318000096841F480310A4A703A116000BF00BFFB
:1031900000BFBFF34F8F00BF00BF00BF00BF00BF25
:1031A00000BFBFF36F8F00BF00BF00BF70470000BC
:1031B00094ED00E008B500BF0648006840F002004A
:1031C000044908600846006800F00200009000BF53
:1031D00000BF08BDF444025801460846002809DB38
:1031E00000F01F0301229A4043099B0003F1E023F2
:1031F000C3F8002100BF70472DE9F05F80460D46FF
:10320000164605F0C1FC074639462A46334601F00A
:103210000700C0F1070ABAF1040F02D94FF0040AFF
:1032200001E0C0F1070AD14600F1040ABAF1070F24
:1032300002D24FF0000A01E0A0F1030AD4464FF099
:10324000010A0AFA09FAAAF1010A0AEA020A0AFAC2
:103250000CFA4FF0010B0BFA0CFBABF1010B0BEA74
:10326000030B4AEA0B042146404605F095FCBDE8F5
:10327000F09F000000BF00F00702064B19684FF6F0
:10328000FF031940044B0B4343EA0221014B196031
:1032900000BF70470CED00E00000FA0570B5044671
:1032A00014480068C0F3800038B91248006800F084
:1032B0000700A04201D0012070BD0E48006820F038
:1032C000070020430B490860FFF790FE054607E022
:1032D000FFF78CFE401BB0F57A7F01D90320EBE7A6
:1032E000044808380068C0F340300028F0D00020BF
:1032F000E2E700000C48025810B501F063FC0749F2
:103300000968C1F30321064A515C01F01F01C8405E
:10331000044908600846006810BD000018440258BF
:10332000FCB40008B800002010B501F00FFC0549FE
:103330000968C1F30211044A515C01F01F01C84041
:1033400010BD000020440258FCB4000870B50146CE
:10335000844D2D6805F00303824D2D68C5F30510DB
:10336000804D2D1D2D6805F001047E4D0C352D6816
:10337000C5F3CC0515FB04F501EE105AB8EE411A61
:10338000F0EE410A00286FD023B1012B4ED0022B62
:103390006BD16BE0734D283D2D68C5F340153DB3EF
:1033A000704D283D2D68C5F3C1066F4D25FA06F214
:1033B00001EE102AF8EE411A01EE100AB8EE411A99
:1033C00081EE812A9FED691AC0EE811A654D08359C
:1033D0002D68C5F3080501EE105AB8EE411A31EE1A
:1033E000811AF7EE001A31EE211A22EE010A1CE0D2
:1033F00001EE100AB8EE411ADFED5D1A81EE812A66
:103400009FED5A1AC0EE811A564D08352D68C5F346
:10341000080501EE105AB8EE411A31EE811AF7EEA6
:10342000001A31EE211A22EE010A5BE001EE100AC9
:10343000B8EE411ADFED4F1A81EE812A9FED4B1A4B
:10344000C0EE811A474D08352D68C5F3080501EE19
:10345000105AB8EE411A31EE811AF7EE001A31EE29
:10346000211A22EE010A3DE077E01DE001EE100A8C
:10347000B8EE411A9FED402AC2EE011A9FED3B1AA9
:1034800080EE812A374D08352D68C5F3080501EE19
:10349000105AB8EE411A32EE011AB7EE002A31EE98
:1034A000021A21EE810A1DE001EE100AB8EE411A5F
:1034B000DFED301A81EE812A9FED2C1AC0EE811AC1
:1034C000284D08352D68C5F3080501EE105AB8EEF1
:1034D000411A31EE811AF7EE001A31EE211A22EE6E
:1034E000010A00BF00BF1F4D08352D68C5F34625F2
:1034F00001EE105AB8EE411AF7EE001A31EE211A19
:10350000C0EE011ABCEEE11A81ED001A154D083526
:103510002D68C5F3064501EE105AB8EE411AF7EED4
:10352000001A31EE211AC0EE011ABCEEE11A81ED4B
:10353000011A0C4D08352D68C5F3066501EE105AC9
:10354000B8EE411AF7EE001A31EE211AC0EE011A58
:10355000BCEEE11A81ED021A03E000250D604D601A
:103560008D6070BD284402580090D00300000046D2
:103570000024744C0024744A20BCBE4B70B5014634
:10358000844D2D6805F00303824D2D68C5F3053089
:10359000804D2D1D2D6805F010047E4D14352D68CD
:1035A000C5F3CC0515FB04F501EE105AB8EE411A2F
:1035B000F0EE410A00286FD023B1012B4ED0022B30
:1035C0006BD16BE0734D283D2D68C5F340153DB3BD
:1035D000704D283D2D68C5F3C1066F4D25FA06F2E2
:1035E00001EE102AF8EE411A01EE100AB8EE411A67
:1035F00081EE812A9FED691AC0EE811A654D103562
:103600002D68C5F3080501EE105AB8EE411A31EEE7
:10361000811AF7EE001A31EE211A22EE010A1CE09F
:1036200001EE100AB8EE411ADFED5D1A81EE812A33
:103630009FED5A1AC0EE811A564D10352D68C5F30C
:10364000080501EE105AB8EE411A31EE811AF7EE74
:10365000001A31EE211A22EE010A5BE001EE100A97
:10366000B8EE411ADFED4F1A81EE812A9FED4B1A19
:10367000C0EE811A474D10352D68C5F3080501EEDF
:10368000105AB8EE411A31EE811AF7EE001A31EEF7
:10369000211A22EE010A3DE077E01DE001EE100A5A
:1036A000B8EE411A9FED402AC2EE011A9FED3B1A77
:1036B00080EE812A374D10352D68C5F3080501EEDF
:1036C000105AB8EE411A32EE011AB7EE002A31EE66
:1036D000021A21EE810A1DE001EE100AB8EE411A2D
:1036E000DFED301A81EE812A9FED2C1AC0EE811A8F
:1036F000284D10352D68C5F3080501EE105AB8EEB7
:10370000411A31EE811AF7EE001A31EE211A22EE3B
:10371000010A00BF00BF1F4D10352D68C5F34625B7
:1037200001EE105AB8EE411AF7EE001A31EE211AE6
:10373000C0EE011ABCEEE11A81ED001A154D1035EC
:103740002D68C5F3064501EE105AB8EE411AF7EEA2
:10375000001A31EE211AC0EE011ABCEEE11A81ED19
:10376000011A0C4D10352D68C5F3066501EE105A8F
:10377000B8EE411AF7EE001A31EE211AC0EE011A26
:10378000BCEEE11A81ED021A03E000250D604D60E8
:103790008D6070BD284402580090D00300000046A0
:1037A0000024744C0024744A20BCBE4B70B5014602
:1037B000844D2D6805F00303824D2D68C5F3055037
:1037C000804D2D1D2D6805F480747E4D1C352D68AF
:1037D000C5F3CC0515FB04F501EE105AB8EE411AFD
:1037E000F0EE410A00286FD023B1012B4ED0022BFE
:1037F0006BD16BE0734D283D2D68C5F340153DB38B
:10380000704D283D2D68C5F3C1066F4D25FA06F2AF
:1038100001EE102AF8EE411A01EE100AB8EE411A34
:1038200081EE812A9FED691AC0EE811A654D183527
:103830002D68C5F3080501EE105AB8EE411A31EEB5
:10384000811AF7EE001A31EE211A22EE010A1CE06D
:1038500001EE100AB8EE411ADFED5D1A81EE812A01
:103860009FED5A1AC0EE811A564D18352D68C5F3D2
:10387000080501EE105AB8EE411A31EE811AF7EE42
:10388000001A31EE211A22EE010A5BE001EE100A65
:10389000B8EE411ADFED4F1A81EE812A9FED4B1AE7
:1038A000C0EE811A474D18352D68C5F3080501EEA5
:1038B000105AB8EE411A31EE811AF7EE001A31EEC5
:1038C000211A22EE010A3DE077E01DE001EE100A28
:1038D000B8EE411A9FED402AC2EE011A9FED3B1A45
:1038E00080EE812A374D18352D68C5F3080501EEA5
:1038F000105AB8EE411A32EE011AB7EE002A31EE34
:10390000021A21EE810A1DE001EE100AB8EE411AFA
:10391000DFED301A81EE812A9FED2C1AC0EE811A5C
:10392000284D18352D68C5F3080501EE105AB8EE7C
:10393000411A31EE811AF7EE001A31EE211A22EE09
:10394000010A00BF00BF1F4D18352D68C5F346257D
:1039500001EE105AB8EE411AF7EE001A31EE211AB4
:10396000C0EE011ABCEEE11A81ED001A154D1835B2
:103970002D68C5F3064501EE105AB8EE411AF7EE70
:10398000001A31EE211AC0EE011ABCEEE11A81EDE7
:10399000011A0C4D18352D68C5F3066501EE105A55
:1039A000B8EE411AF7EE001A31EE211AC0EE011AF4
:1039B000BCEEE11A81ED021A03E000250D604D60B6
:1039C0008D6070BD284402580090D003000000466E
:1039D0000024744C0024744A20BCBE4B2DE9F041F5
:1039E00089B00746B7F5807F32D1C248006800F041
:1039F0000706052E29D2DFE806F003080D2612007F
:103A000006A8FFF7A3FC079C21E003A8FFF7B6FD7B
:103A1000039C1CE06846FFF7C9FE009C17E0B54810
:103A2000001F006800F040550DB9B34C0AE0B5F135
:103A3000805F01D1B14C05E0B5F1005F01D1B04C20
:103A400000E0002403E0AF4C01E0002400BF4CE1A3
:103A5000B7F5007F38D1A748006800F4E076802EE3
:103A600014D003DC46B1402E2BD10AE0C02E26D064
:103A7000B6F5807F25D10EE006A8FFF767FC079C0E
:103A800021E003A8FFF77AFD039C1CE06846FFF7DE
:103A90008DFE009C17E09748001F006800F040551D
:103AA0000DB9954C0AE0B5F1805F01D1934C05E06A
:103AB000B5F1005F01D1924C00E0002403E0914C8D
:103AC00001E0002400BF10E1B7F5806F3CD18948C8
:103AD0000830006800F46006B6F5800F16D004DCEC
:103AE00056B1B6F5001F2CD10BE0B6F5C00F26D0AD
:103AF000B6F5000F25D10EE006A8FFF727FC079CBE
:103B000021E003A8FFF73AFD039C1CE06846FFF79D
:103B10004DFE009C17E07748001F006800F04055FC
:103B20000DB9754C0AE0B5F1805F01D1734C05E029
:103B3000B5F1005F01D1724C00E0002403E0714C4C
:103B400001E0002400BFD0E0B7F5006F3CD1694828
:103B50000830006800F0E066B6F1007F16D004DCA3
:103B600056B1B6F1807F2CD10BE0B6F1407F26D064
:103B7000B6F1806F25D10EE006A8FFF7E7FB079CA2
:103B800021E003A8FFF7FAFC039C1CE06846FFF75E
:103B90000DFE009C17E05748001F006800F04055DC
:103BA0000DB9554C0AE0B5F1805F01D1534C05E0E9
:103BB000B5F1005F01D1524C00E0002403E0514C0C
:103BC00001E0002400BF90E0B7F5805F3DD1494897
:103BD000006800F4E048B8F5005F18D006DCB8F1E2
:103BE000000F0AD0B8F5805F2CD10BE0B8F5405F2C
:103BF00026D0B8F5804F25D10EE006A8FFF7A6FB2A
:103C0000079C21E003A8FFF7B9FC039C1CE0684671
:103C1000FFF7CCFD009C17E03648001F006800F05D
:103C200040550DB9344C0AE0B5F1805F01D1334CF9
:103C300005E0B5F1005F01D1314C00E0002403E064
:103C4000304C01E0002400BF4FE0B7F5002F2FD12A
:103C500028480830006800F44038B8F1000F06D05A
:103C6000B8F5803F08D0B8F5003F1ED109E003A8A1
:103C7000FFF784FC039C1AE06846FFF797FD029C5F
:103C800015E01C48001F006800F040550DB91A4CA3
:103C90000AE0B5F1805F01D1184C05E0B5F1005F95
:103CA00001D1174C00E0002401E0002400BF1CE01B
:103CB000B7F5803F18D10F48001F006800F4803826
:103CC000B8F1000F03D0B8F5803F0AD104E006A890
:103CD000FFF73CFB079C06E003A8FFF74FFC059CA1
:103CE00001E0002400BF00E00024204609B0BDE848
:103CF000F0810000504402580090D00300093D00BC
:103D000040787D010080BB002DE9F041044600258C
:103D1000A846206800F00060B0F1006F30D1606EFE
:103D200048B1B0F5801F0DD0B0F5001F10D0B0F530
:103D3000401F15D113E0F948006840F40030F749FE
:103D400008600FE00221201D02F0CEFD054609E0CB
:103D5000022104F1240002F079FE054602E001E0B0
:103D6000012500BF00BF55B9EC482430006820F49D
:103D70004010616E0843E9492431086000E0A8461C
:103D8000208800F48070B0F5807F2DD1606D05280B
:103D90001AD2DFE800F0030A10171800DF480068A5
:103DA00040F40030DD49086010E00021201D02F0E1
:103DB0009BFD05460AE0002104F1240002F046FEC6
:103DC000054603E002E001E0012500BF00BF55B950
:103DD000D2482430006820F00700616D0843CF49C5
:103DE0002431086000E0A846208800F40070B0F597
:103DF000007F33D1A06D802817D003DC40B140286C
:103E00001CD10CE0C02817D0B0F5807F16D114E08B
:103E1000C248006840F40030C049086010E000214A
:103E2000201D02F061FD05460AE0002104F1240096
:103E300002F00CFE054603E002E001E0012500BFB0
:103E400000BF55B9B5482430006820F4E070A16D7A
:103E50000843B2492431086000E0A846208800F4F5
:103E60008060B0F5806F38D1D4F8A400B0F5800F31
:103E700019D004DC50B1B0F5001F1DD10DE0B0F534
:103E8000C00F17D0B0F5000F16D114E0A34800689A
:103E900040F40030A149086010E00021201D02F02C
:103EA00023FD05460AE0002104F1240002F0CEFDC6
:103EB000054603E002E001E0012500BF00BF5DB957
:103EC00096482C30006820F46000D4F8A410084311
:103ED00092492C31086000E0A846208800F4006078
:103EE000B0F5006F38D1D4F8A800B0F1007F19D038
:103EF00004DC50B1B0F1807F1DD10DE0B0F1407F06
:103F000017D0B0F1806F16D114E08448006840F4F7
:103F100000308249086010E00021201D02F0E4FC1E
:103F200005460AE0002104F1240002F08FFD054659
:103F300003E002E001E0012500BF00BF5DB9774862
:103F40002C30006820F0E060D4F8A81008437349D2
:103F50002C31086000E0A846206800F00070B0F145
:103F6000007F27D1A06CA0B1102804D0202809D050
:103F700030280FD10CE06948006840F400306749F0
:103F8000086009E00221201D02F0AEFC054603E0B6
:103F900002E001E0012500BF00BF55B95F482030B5
:103FA000006820F03000A16C08435C4920310860B3
:103FB00000E0A846208800F48050B0F5805F36D13C
:103FC000E06DB0F5005F19D004DC50B1B0F5805F52
:103FD0001DD10DE0B0F5405F17D0B0F5804F16D180
:103FE00014E04E48006840F400304C49086010E08E
:103FF0000021201D02F078FC05460AE0002104F1B2
:10400000240002F023FD054603E002E001E0012563
:1040100000BF00BF55B941482430006820F4E0409B
:10402000E16D08433D492431086000E0A84620883E
:1040300000F40050B0F5005F34D1206EB0F5403F81
:104040001DD007DC68B1B0F5803F0BD0B0F5003F64
:1040500018D10DE0B0F5802F12D0B0F5A02F11D1FE
:104060000FE011E00121201D02F03EFC05460BE0AF
:10407000012104F1240002F0E9FC054604E003E01C
:1040800002E001E0012500BF00BF55B923482430FC
:10409000006820F4E020216E0843204924310860A4
:1040A00000E0A846208800F48040B0F5804F38D169
:1040B000D4F8AC00B0F1405F1DD007DC68B1B0F1BE
:1040C000805F0BD0B0F1005F18D10DE0B0F1804FF0
:1040D00012D0B0F1A04F11D10FE011E00121201D4D
:1040E00002F002FC05460BE0012104F1240002F07D
:1040F000ADFC054604E003E002E001E0012500BF5D
:1041000000BF6DB905482C30006820F0E040D4F8BD
:10411000AC10084301492C31086002E02C440258DD
:10412000A846208800F40040B0F5004F26D1E06E8C
:1041300098B1B0F1805F03D0B0F1005F0ED106E01E
:10414000F948006840F40030F749086008E00121B0
:10415000201D02F0C9FB054602E001E0012500BF79
:1041600000BF55B9F0482430006820F04050E16E9F
:104170000843ED492431086000E0A846206800F0BB
:104180008070B0F1807F27D1606CA0B1012804D08D
:10419000022809D003280FD10CE0E348006840F45E
:1041A0000030E149086009E00221201D02F09CFB7B
:1041B000054603E002E001E0012500BF00BF55B95C
:1041C000D9482030006820F00300616C0843D649CC
:1041D0002031086000E0A846206800F48000B0F5B7
:1041E000800F7DD1D148006840F48070CF490860CD
:1041F000FEF7FCFE064606E0FEF7F8FE801B64288C
:1042000001D9032505E0C948006800F48070002842
:10421000F2D000BF85BBC4484430006800F4407051
:10422000B4F8B01001F44071884213D0BE48443055
:10423000006820F44077BC484430006840F4803087
:10424000B949443108600846006820F480300860AD
:1042500008460760D4F8B000B0F5807F15D1FEF7AE
:10426000C5FE064609E0FEF7C1FE801B41F288311B
:10427000884202D9032507E038E0AB4844300068A3
:10428000C0F340000028EED000BF55BB00BFB4F81B
:10429000B00000F44070B0F5407F0ED1A2481C3849
:1042A000006820F47C51A24AD4F8B000104041EAE2
:1042B00010109D491C39086007E09B481C380068B5
:1042C00020F47C5098491C390860974844300068B5
:1042D000B4F8B010C1F30B0108439349443101E035
:1042E00005E001E0086002E0A84600E0A84620786A
:1042F00000F0010068B3A06F182819D005DC48B1A0
:10430000082808D0102816D10BE0202811D0282822
:1043100011D10FE011E00121201D02F0E5FA054660
:104320000BE0012104F1240002F090FB054604E0BB
:1043300003E002E001E0012500BF00BF55B97A4863
:104340002830006820F03800A16F084376492831F2
:10435000086000E0A846207800F00200022828D17A
:10436000606F062815D2DFE800F003040A1112136B
:1043700011E00121201D02F0B7FA05460BE00121F2
:1043800004F1240002F062FB054604E003E002E0D1
:1043900001E0012500BF00BF55B96348283000681F
:1043A00020F00700616F08435F492831086000E092
:1043B000A846207800F0040004282AD1D4F8900000
:1043C000062815D2DFE800F003040A11121311E0E9
:1043D0000121201D02F088FA05460BE0012104F1BD
:1043E000240002F033FB054604E003E002E001E0B4
:1043F000012500BF00BF5DB94B482C30006820F09C
:104400000700D4F89010084347492C31086000E0B9
:10441000A846207800F02000202836D1D4F88C005F
:10442000B0F1405F1DD007DC68B1B0F1805F0BD008
:10443000B0F1005F18D10DE0B0F1804F12D0B0F1B3
:10444000A04F11D10FE011E00021201D02F04CFA25
:1044500005460BE0022104F1240002F0F7FA0546BC
:1044600004E003E002E001E0012500BF00BF5DB908
:104470002D482830006820F0E040D4F88C10084324
:1044800029492831086000E0A846207800F0400063
:10449000402836D1D4F89800B0F5406F1DD007DC25
:1044A00068B1B0F5806F0BD0B0F5006F18D10DE09A
:1044B000B0F5805F12D0B0F5A05F11D10FE011E030
:1044C0000021201D02F010FA05460BE0022104F144
:1044D000240002F0BBFA054604E003E002E001E03C
:1044E000012500BF00BF5DB90F482C30006820F4E3
:1044F000E050D4F8981008430B492C31086000E0D4
:10450000A846207800F0800080283AD1D4F89C009A
:10451000B0F5C04F23D00DDC98B1B0F5005F11D0DD
:10452000B0F5804F1ED113E02C44025800480258C9
:10453000FFFCFF0FB0F5004F12D0B0F5204F11D1A6
:104540000FE011E00021201D02F0CEF905460BE03E
:10455000022104F1240002F079FA054604E003E0A8
:1045600002E001E0012500BF00BF4DB9B648006878
:1045700020F46040D4F89C100843B349086000E080
:10458000A846207800F00800082818D1D4F8800048
:10459000B0F5805F08D1022104F1240002F056FA40
:1045A00068B14FF001080AE0A748001F006820F436
:1045B0004050D4F880100843A349091F08602078B0
:1045C00000F01000102816D1D4F89400B0F5807FC8
:1045D00008D1022104F1240002F038FA58B14FF05A
:1045E000010808E09848006820F44070D4F894105E
:1045F000084395490860206800F40020B0F5002FBA
:1046000026D1D4F8A00030B1B0F5803F09D0B0F584
:10461000003F0ED10CE00021201D02F065F9054697
:1046200009E0022104F1240002F010FA054602E03C
:1046300001E0012500BF00BF4DB98348006820F4A8
:104640004030D4F8A01008437F49086000E0A84635
:10465000206800F48020B0F5802F2DD1D4F884009C
:10466000B0F5801F06D0B0F5001F0CD0B0F5401F8C
:1046700011D10FE074482C38006840F400307249C2
:104680002C39086009E0012104F1240002F0DEF970
:10469000054602E001E0012500BF00BF5DB96A48A0
:1046A000001F006820F44010D4F8841008436649C5
:1046B000091F086000E0A846206800F48030B0F5CB
:1046C000803F24D1E06C18B1B0F5803F0FD108E0F5
:1046D0005D482C38006840F400305B492C39086094
:1046E00007E00221201D02F0FFF8054601E0012548
:1046F00000BF00BF55B954480C38006820F4803022
:10470000E16C084350490C39086000E0A846206875
:1047100000F00050B0F1005F07D1022104F1240045
:1047200002F094F908B14FF00108206800F400305D
:10473000B0F5003F27D1E06FA0B1B0F5807F06D083
:10474000B0F5007F0CD0B0F5407F0CD109E03E48B9
:104750002C38006840F400303B492C39086004E0F4
:1047600003E002E001E0012500BF00BF55B9364873
:10477000001F006820F44070E16F08433249091FB0
:10478000086000E0A846206800F48010B0F5801FA3
:1047900009D12D480838006820F00040216F0843F7
:1047A000294908390860206800F08050B0F1805F26
:1047B0000AD125484838006820F48040D4F8B41065
:1047C0000843214948390860206800F40010B0F51A
:1047D000001F09D11C480838006820F08070A16EC5
:1047E0000843194908390860206800F08040B0F19A
:1047F000804F11D100BF14484838006820F40040B1
:1048000011494839086008460068D4F8B8100843D0
:104810000D494839086000BF206800F00040B0F141
:10482000004F09D108480C38006820F04050216D35
:10483000084305490C390860B8F1000F02D1002087
:10484000BDE8F0810120FBE7584402582DE9F04112
:1048500004460D4614B90120BDE8F081B648006851
:1048600000F00F00A8420ED2B348006820F00F00FD
:104870002843B14908600846006800F00F00A842CC
:1048800001D00120E8E7207800F0040004280ED1D0
:10489000AA492069096801F07001884207D9A74830
:1048A000006820F0700021690843A449086020785E
:1048B00000F00800082811D1A049091D60690968A5
:1048C00001F07001884209D99C48001D006820F061
:1048D0007000616908439949091D0860207800F05B
:1048E0001000102811D19549091DA069096801F42B
:1048F000E061884209D99148001D006820F4E06019
:10490000A16908438D49091D0860207800F0200046
:10491000202811D189490831E069096801F0700146
:10492000884209D985480830006820F07000E169A4
:104930000843824908310860207800F0020002280C
:104940000ED17E49E068096801F00F01884207D95D
:104950007A48006820F00F00E16808437749086052
:10496000207800F00100002850D07448006820F43E
:104970007060A1680843714908606068022807D127
:104980006E4818380068C0F34040F8B9012063E76A
:104990006068032807D1694818380068C0F3406090
:1049A000A0B9012058E76068012807D1634818388A
:1049B0000068C0F3002048B901204DE75F4818386F
:1049C0000068C0F3800008B9012045E75B4808385B
:1049D000006820F0070061680843584908390860FA
:1049E000FEF704FB064608E0FEF700FB801B41F2E1
:1049F0008831884201D903202EE7504808380068E2
:104A000000F038006168B0EBC10FEDD1207800F004
:104A1000020002280ED14949E068096801F00F013F
:104A2000884207D24548006820F00F00E16808433B
:104A3000424908604048006800F00F00A8420ED9C3
:104A40003D48006820F00F0028433B4908600846B5
:104A5000006800F00F00A84201D00120FCE6207899
:104A600000F0040004280ED134492069096801F0DF
:104A70007001884207D23148006820F07000216937
:104A800008432E490860207800F00800082811D15A
:104A90002A49091D6069096801F07001884209D23C
:104AA0002648001D006820F0700061690843234912
:104AB000091D0860207800F01000102811D11F494E
:104AC000091DA069096801F4E061884209D21B4808
:104AD000001D006820F4E060A16908431749091D22
:104AE0000860207800F02000202811D113490831F7
:104AF000E069096801F07001884209D20F48083066
:104B0000006820F07000E16908430C490831086032
:104B100000F058F809490968C1F30321084A515CBB
:104B200001F01F01C8400749086007480068FEF708
:104B3000B1FA074638468FE6002000521844025862
:104B4000FCB40008B8000020B000002010B5FEF74B
:104B5000D3FB0749096801F00F01064A515C01F0D7
:104B60001F01C840044908600846006810BD0000E5
:104B700018440258FCB40008BC00002010B5FFF730
:104B8000E5FF05490968C1F30211044A515C01F0CF
:104B90001F01C84010BD00001C440258FCB40008AE
:104BA00010B5FFF7D3FF05490968C1F30221044A94
:104BB000515C01F01F01C84010BD00001C440258A8
:104BC000FCB40008F0B5824E366806F0380636B1FF
:104BD000082E15D0102E15D0182E7DD114E07C4E45
:104BE000103E3668C6F3401646B1794E103E366820
:104BF000C6F3C107774E26FA07F000E07548E5E0F6
:104C00007548E3E07548E1E0714E1836366806F005
:104C100003046F4E18363668C6F305116C4E1C3609
:104C2000366806F001056A4E24363668C6F3CC06AF
:104C300016FB05F601EE106AB8EE410A002971D0A4
:104C400024B1012C50D0022C6DD16DE0604E103E8D
:104C50003668C6F340163EB35D4E103E3668C6F366
:104C6000C1075C4E26FA07F301EE103AF8EE411A3E
:104C700001EE101AB8EE411A81EE812A9FED581A02
:104C8000C0EE011A524E20363668C6F3080601EE11
:104C9000106AB8EE411A31EE811AF7EE001A31EEC1
:104CA000211A62EE010A1EE001EE101AB8EE411A56
:104CB000DFED4C1A81EE812A9FED491AC0EE011AF0
:104CC000434E20363668C6F3080601EE106AB8EE89
:104CD000411A31EE811A00E076E0F7EE001A31EE6B
:104CE000211A62EE010A5BE001EE101AB8EE411AD9
:104CF0009FED3D2AC2EE011A9FED391A80EE012A7E
:104D0000334E20363668C6F3080601EE106AB8EE58
:104D1000411A32EE011AB7EE002A31EE021A61EEA4
:104D2000810A3DE04EE01DE001EE101AB8EE411A96
:104D3000DFED2E1A81EE812A9FED291AC0EE011AAD
:104D4000234E20363668C6F3080601EE106AB8EE28
:104D5000411A31EE811AF7EE001A31EE211A62EE95
:104D6000010A1DE001EE101AB8EE411A9FED1E2A4D
:104D7000C2EE011A9FED1A1A80EE012A144E203657
:104D80003668C6F3080601EE106AB8EE411A32EE34
:104D9000011AB7EE002A31EE021A61EE810A00BF55
:104DA00000BF0B4E20363668C6F34626721C01EE55
:104DB000102AB8EE411AC0EE811ABCEEE11A11EECB
:104DC000100A00E0002001E0034800BF00BFF0BD72
:104DD000104402580090D00300093D0040787D0146
:104DE000000000460024744C0024744A20BCBE4BD2
:104DF0002DE9F041044614B90120BDE8F081207886
:104E000000F00100002871D0F848006800F0380672
:104E1000F64818300768102E05D0182E0FD107F06D
:104E2000030002280BD1F14810380068C0F340405D
:104E300000286AD06068002867D10120DDE700BF44
:104E40006068B0F5803F08D1E8481038006840F449
:104E50008030E649103908602EE0606868B9E348A0
:104E60001038006820F48030E049103908600846A6
:104E7000006820F4802008601EE06068B0F5A02F74
:104E80000DD1DA481038006840F48020D749103935
:104E900008600846006840F4803008600CE0D348A1
:104EA0001038006820F48030D04910390860084676
:104EB000006820F48020086000BF606890B1FEF7B1
:104EC00095F8054606E0FEF791F8401B642801D9E5
:104ED000032092E7C54810380068C0F3404000281E
:104EE000F1D012E0FEF782F8054607E00EE0FEF78B
:104EF0007DF8401B642801D903207EE7BB481038A9
:104F00000068C0F340400028F1D100BF207800F0D5
:104F1000020002287ED1B548006800F03806B34888
:104F20001830076826B1182E48D107F00300C0BB1F
:104F3000AE4810380068C0F3800018B1E06808B9C6
:104F400001205AE7A9481038006820F01900E168EC
:104F50000843A64910390860FEF748F8054606E000
:104F6000FEF744F8401B022801D9032045E79F487B
:104F700010380068C0F380000028F1D000BFFEF7B1
:104F80002FF841F2030188420CD898480C38006889
:104F900020F47C30216940EA013094490C390860E2
:104FA0000BE00BE091480C38006820F0FE40217CBB
:104FB00040EA01608D490C39086059E0E06850B35F
:104FC0008A481038006820F01900E16808438749D2
:104FD00010390860FEF70AF8054606E0FEF706F805
:104FE000401B022801D9032007E7804810380068D9
:104FF000C0F380000028F1D000BFFDF7F1FF41F2BF
:10500000030188420ED879480C38006820F47C30BF
:10501000216901E02DE011E040EA013073490C39CB
:1050200008600AE071480C38006820F0FE40217CDE
:1050300040EA01606D490C39086019E06B4810388E
:10504000006820F00100694910390860FDF7CEFFC3
:10505000054606E0FDF7CAFF401B022801D90320E0
:10506000CBE6624810380068C0F380000028F1D118
:1050700000BF207800F01000102878D15B4800684D
:1050800000F03806594818300768082E05D0182E49
:105090002FD107F0030001282BD1544810380068A5
:1050A000C0F3002020B1E069802801D00120A4E6EF
:1050B00000BFFDF795FF41F2030188420CD84B4831
:1050C0000C38006820F0F84094F8201040EA816025
:1050D00046490C3908600BE04448001F006820F086
:1050E0007C5094F8201040EA01604049091F086094
:1050F00058E0E069D0B33D481038006840F08000C7
:105100003A4910390860FDF771FF054606E0FDF7E2
:105110006DFF401B022801D903206EE6334810388A
:105120000068C0F300200028F1D000BFFDF758FF51
:1051300041F2030188420CD82C480C38006820F05A
:10514000F84094F8201040EA816028490C39086042
:105150000BE02648001F006820F07C5094F82010D7
:1051600040EA01602149091F08601BE000E01AE0E5
:105170001E481038006820F080001C491039086073
:10518000FDF734FF054606E0FDF730FF401B02281F
:1051900001D9032031E6154810380068C0F300201B
:1051A0000028F1D100BF207800F00800082836D18F
:1051B0006069E8B10D486430006840F001000B49B7
:1051C00064310860FDF712FF054606E0FDF70EFFAB
:1051D000401B022801D903200FE604486430006810
:1051E000C0F340000028F1D019E00000104402583C
:1051F000CF48006820F00100CD490860FDF7F6FEB9
:10520000054606E0FDF7F2FE401B022801D9032007
:10521000F3E5C7480068C0F340000028F2D12078C9
:1052200000F02000202836D1A069D0B1C0487438E1
:10523000006840F48050BE4974390860FDF7D6FE1E
:10524000054606E0FDF7D2FE401B022801D90320E7
:10525000D3E5B74874380068C0F340300028F1D077
:1052600019E0B3487438006820F48050B0497439AC
:105270000860FDF7BBFE054606E0FDF7B7FE401BE4
:10528000022801D90320B8E5A94874380068C0F3A2
:1052900040300028F1D1207800F0040004287DD1AE
:1052A000A448006840F48070A2490860FDF79EFEA3
:1052B000054606E0FDF79AFE401B642801D903204D
:1052C0009BE59C48006800F480700028F2D000BF85
:1052D000A068012808D19648001F006840F001002E
:1052E0009349091F08602DE0A06868B99048001F25
:1052F000006820F001008E49091F08600846006818
:1053000020F0040008601DE0A06805280DD1884841
:10531000001F006840F004008549091F0860084626
:10532000006840F0010008600CE08148001F006840
:1053300020F001007E49091F08600846006820F03F
:105340000400086000BFA068A0B1FDF74FFE05464D
:1053500008E0FDF74BFE401B41F28831884201D93D
:1053600003204AE57248001F0068C0F3400000288F
:10537000EFD013E0FDF73AFE054608E0FDF736FEF4
:10538000401B41F28831884201D9032035E5684845
:10539000001F0068C0F340000028EFD1606A0028B9
:1053A0007ED063486438006800F03800182878D050
:1053B000606A022876D15E487438006820F08070F8
:1053C0005B4974390860FDF711FE054606E0FDF7FC
:1053D0000DFE401B022801D903200EE55448743805
:1053E0000068C0F340600028F1D100BFD4E90A1082
:1053F00041EA00104E494C39096840F2F3329143BA
:1054000008434B494C390860208E401EC0F3080009
:10541000616B491E4FF47E4202EA41210843218F0D
:10542000491ED20102EA014108433C21095D491E9F
:10543000120202EA016108433D494439086000BF95
:10544000081F006820F00100091F08603848403834
:1054500000684FF6F8718843A16C40EAC1003449F6
:105460004039086032484838006820F00C00216C50
:1054700008432F49483908600846006820F00200B8
:10548000616C08432A49483908600846006840F4BE
:10549000803008600846006840F40030086002E090
:1054A00043E040E024E00846006840F480200860C3
:1054B0000846006840F0010008601D487438006824
:1054C00040F080701A4974390860FDF78FFD054679
:1054D00006E0FDF78BFD401B022801D903208CE478
:1054E000134874380068C0F340600028F1D01CE015
:1054F0000F487438006820F080700D4974390860D6
:10550000FDF774FD054606E0FDF770FD401B02281F
:1055100001D9032071E4064874380068C0F3406084
:105520000028F1D101E0012067E4002065E40000DB
:10553000744402580048025870B5044600260CB95D
:10554000012070BD606A00B900BF0021A16253490B
:10555000206888420CD052492068884208D05149BE
:105560002068884204D0E0680F2801D90120E8E7CC
:10557000204601F060FC054648492068884209D071
:1055800047492068884205D046492068884201D0B2
:10559000082D0DD841492068884207D0404920682D
:1055A000884203D03F492068884203D1102D01D999
:1055B0000120C6E794F8810028B9002084F8800013
:1055C000204600F071F8022084F88100206800680D
:1055D00020F0010021680860A069B0F1806F0BD154
:1055E0006068B0F5800F07D1A06B28B9206800680B
:1055F00040F4805021680860A16AE06908433043A4
:10560000E16B0843E168084321688860616A606B68
:105610000843A16B0843A1690843216908436169F4
:105620000843216A084361680843E16C0843A168A4
:105630000843A16C0843A16D08432168C8606068F5
:1056400078B92068806820F4C05040F40060216878
:1056500088602068806820F4C06040F48060216821
:1056600088602068006D20F001002168086560688E
:1056700000F48000B0F5800F07D12068C06820F0EA
:105680000040616D08432168C8600020C4F88400B0
:10569000012084F88100002053E700000030014021
:1056A00000380040003C004010B586B0044614218C
:1056B00001A8FAF757FE1949206888422BD100BF8C
:1056C0001748006840F480401549086008460068A3
:1056D00000F48040009000BF00BF00BF10480838B1
:1056E000006840F002000E4908390860084600686A
:1056F00000F00200009000BF00BF4FF46040019036
:10570000022002900020039004900520059001A93A
:105710000448FDF75BFB06B010BD000000380040F8
:10572000E8440258000402582DE9FF4F83B00446B4
:105730008A461F46109E0020029000BF94F8800009
:10574000012803D1022007B0BDE8F08F012084F8C2
:10575000800000BFFDF74AFC81463D46A84694F80C
:1057600081B060680190BBF1010F11D00198B0F5D4
:10577000800F04D1A06810B9BBF1040F08D002203B
:10578000029000BF002084F8800000BF0298DAE792
:10579000BAF1000F02D0059800B147B9012002907C
:1057A00000BF002084F8800000BF0298CBE794F887
:1057B0008100042802D0052084F881000020C4F86C
:1057C000840005986066A4F86A70A4F86870C4F84C
:1057D0005CA0A4F86270A4F8607000202067606785
:1057E000206840686FF30F003843216848602068E4
:1057F000006840F00100216808606068B0F5800F23
:1058000005D12068006840F4007021680860E068F5
:105810000F284DD92BE02068406900F002000228D3
:105820000ED16DB1E06D006821680862E06D001D69
:10583000E065B4F86200401EA4F86200B4F862505B
:105840002068406948F20801084080B1B8F1000FB3
:105850000DD02068006B616E0860606E001D606690
:10586000B4F86A00401EA4F86A00B4F86A80002DFB
:10587000D1D1B8F1000FCED1FDF7B8FBA0EB0900F4
:10588000B04201D3701C08B9002E7DD1204601F032
:1058900067FA00BF002084F8800000BFD4F88400BD
:1058A00040F48070C4F88400012084F881004AE745
:1058B000E068072876D96FE02068406900F00200B0
:1058C000022821D105B3012D10D9E06B70B1E06D34
:1058D000006821680862E06D001DE065B4F86200B0
:1058E000801EA4F86200B4F862500DE0E06D0088FC
:1058F00021680884E06D801CE065B4F86200401EF9
:10590000A4F86200B4F862502068406900F4604076
:1059100020B3B8F1000F21D02068406900F40040A6
:1059200070B12068006B616E0860606E001D60667B
:10593000B4F86A00801EA4F86A00B4F86A800DE02A
:105940002068008E616E0880606E801C6066B4F80E
:105950006A00401EA4F86A00B4F86A80FDF746FBAE
:10596000A0EB0900B04201D3701C00B9A6B92046D3
:1059700001F0F6F900BF002084F8800000BFD4F8E1
:10598000840040F4807001E0ACE00BE0C4F88400D7
:10599000012084F88100D6E6002D8DD1B8F1000FEA
:1059A0008AD19FE098E02068406900F00200022858
:1059B00036D12DB3032D11D9E06B40280ED9E06DFF
:1059C000006821680862E06D001DE065B4F86200BF
:1059D000001FA4F86200B4F8625021E0012D10D934
:1059E000E06B70B1E06D008821680884E06D801C78
:1059F000E065B4F86200801EA4F86200B4F862505A
:105A00000EE0E06D0078216881F82000E06D401C18
:105A1000E065B4F86200401EA4F86200B4F8625079
:105A20002068406900F4604058B3B8F1000F38D0E6
:105A30002068406900F4004070B12068006B616E1E
:105A40000860606E001D6066B4F86A00001FA4F86C
:105A50006A00B4F86A8024E02068406900F4C0401D
:105A6000B0F5005F0ED92068008E616E0880606E10
:105A7000801C6066B4F86A00801EA4F86A00B4F85E
:105A80006A800EE0206890F83000616E0870606EE9
:105A9000401C6066B4F86A00401EA4F86A00B4F8BE
:105AA0006A80FDF7A3FAA0EB0900B04201D3701C95
:105AB00000B98EB9204601F053F900BF002084F8E8
:105AC000800000BFD4F8840040F48070C4F88400E3
:105AD000012084F8810036E6002D7FF464AFB8F130
